S01F0000626F6F746C6F616465722D6170706C6F616465725F6463622E7333373D
S31508000000081000200104000859A800087DA9000866
S3150800001059A8000859A8000859A8000859A80008AE
S3150800002059A8000859A8000860BF000859A8000880
S3150800003059A8000810BF000859A8000859A80008C0
S3150800004059A8000859A8000859A8000859A800087E
S3150800005059A8000859A8000859A8000859A800086E
S3150800006059A8000859A8000859A8000859A800085E
S3150800007059A8000859A8000859A8000859A800084E
S3150800008059A8000859A8000859A8000859A800083E
S3150800009059A800088D19000859A8000859A8000889
S315080000A059A800086D1900084D19000859A8000834
S315080000B059A8000845910008F19B0008BFBA000836
S315080000C0BBBA000881930008D5BA0008C3BA00086D
S315080000D0C19B0008C7BA0008319C0008999C000813
S315080000E059A8000859A8000859A8000859A80008DE
S315080000F059A8000859A8000859A8000859A80008CE
S3150800010059A8000859A8000859A8000859A80008BD
S3150800011059A8000859A8000859A8000859A80008AD
S3150800012059A8000859A8000859A8000859A800089D
S3150800013059A8000859A8000859A8000859A800088D
S3150800014059A8000859A8000859A8000859A800087D
S31508000150117E000859A80008A9BA0008AFBA000815
S3150800016059A8000859A8000859A8000859A800085D
S3150800017070B54FF0FF358AB0064633480BF0CEF817
S315080001803249334B334C0B60334B00224B60334BB5
S3150800019020461B8825604B82314B1B68CB61314B4F
S315080001A01B880B82304B1B688B6104F057FA24A31B
S315080001B0D3E90023CDE900234FF0FF334FF0FF3298
S315080001C020680BF050F92946022220680BF04DF9F9
S315080001D000239422CDE9073309933C23CDE9033262
S315080001E00593962303A92068069304F0F5FA0AF006
S315080001F087FD2546014620680BF070F920680BF04C
S31508000200CFF9B6F9001055F8080B0BF04EF97668D9
S3150800021066B928460AF005FEA37B66F30003A373B6
S31508000220202323840AF04DFD0AB070BD3068A06013
S31508000230B288B379AA80AB71F2E700BFAFF300804A
S315080002400855005100000000690345EC281D0020F0
S31508000250313C00085C1D00204C1D002030D10008F0
S3150800026034D1000832D1000838D100080348044BBD
S31508000270834202D0034B03B1184770470C2700206E
S315080002800C27002000000000064B0749C91A8910F0
S3150800029048BF0131491003D0044B0BB10148184738
S315080002A0704700BF0C2700200C2700200000000024
S315080002B010B5064C237843B9FFF7D8FF044B13B1A2
S315080002C00448AFF300800123237010BD5426002094
S315080002D0000000007C10010808B5054B1BB1054954
S315080002E00548AFF30080BDE80840FFF7CDBF00BF63
S315080002F000000000401200207C10010810B52A4CAE
S3150800030002F048F802F092F9236F012023F0070360
S3150800031043F00303236702F0B3F9244B01219B6AD8
S315080003203E20DB015EBF4FF48032214B9A62D4F83F
S31508000330203123F0070343F00203C4F82031D4F830
S31508000340283123F0070343F00203C4F82831D4F810
S31508000350403123F0030343F00203C4F84031D4F8D4
S31508000360603123F0030343F00203C4F8603101F05F
S31508000370D9FDD4F84032002023F0030343F00203EA
S31508000380C4F84032D4F8003223F0070343F00203DE
S31508000390C4F80032D4F8083223F0070343F0020306
S315080003A0C4F8083210BD00BF008000500040005A53
S315080003B00060005A064B0748DA1C121AC11E22F0C2
S315080003C00302994288BF002203490BF0B9BB00BF5C
S315080003D00C2700209026002090100108064B07489D
S315080003E0DA1C121AC11E22F00302994288BF0022A3
S315080003F000210BF09DBB00BF9026002008100020AE
S3150800040008B5064B83F30A8800F00AF800F01CFBCF
S31508000410FFF7D0FFFFF7E2FF00F0DEFA0800002042
S315080004204FF48041124B134A70B59A60D3F888206E
S31508000430114D42F47002C3F88820104A05F500549D
S3150800044091664FF0FF3222660D4A62660222C3F8B1
S31508000450D020BFF34F8FBFF36F8F4FF44036002085
S3150800046002F0DCFD0020E66002F0CAFD2E6170BDD8
S3150800047000ED00E0000000080080004400900050F5
S31508000480F7FF370030B5154BADF5117D03AC0FCB33
S3150800049084E80F002C22002107A80BF049FB6825E9
S315080004A0FF234FF49472002146A88DF81D300BF0F7
S315080004B03FFB2A46002112A80BF03AFB2A460021E8
S315080004C02CA80BF035FB00942CAB12AA46A907A85A
S315080004D000F0E2F80DF5117D30BD00BFE4BE00085E
S315080004E00122044B1A700023034A1370034A13703F
S315080004F0704700BF572600205626002055260020A4
S31508000500002238B5124B134C1A700122124B1A707E
S3150800051023689A78DAB1DA78CAB11A78510706D513
S31508000520986A0AF00DFA10B10C4800F0F3F923683E
S315080005301A7892070BD55D680AF0EFF9854206D955
S3150800054023680648596ABDE8384000F099B938BDAD
S315080005505726002070120020562600200080010829
S3150800056007B5024601200B460649087006490748A2
S315080005700968009106490068096800F023FC03B081
S315080005805DF804FB552600206C1200206812002036
S3150800059070120020044A0549054820231268096894
S315080005A0006800F0D5BB00BF60120020641200206E
S315080005B068120020094B1A68D37892782AB1002B62
S315080005C041F20C0018BF0020704741F20C0240F2BD
S315080005D00570002B08BF1046704700BF7012002038
S315080005E008B5FFF78BFE02F0ADFC02F095FC02F0B1
S315080005F027FBBDE8084001480AF084BB58120020D2
S3150800060010B5234B234C18681B7992B08DF80C3023
S3150800061023880290ADF80D30A37868468DF80F3020
S315080006200AF07EFB41F60833ADF810309DF8063027
S31508000630BDF80420C3F300038DF8183040F60223F2
S31508000640ADF8283000230098ADF816208DF82A302A
S31508000650CDF8120002F0F6FC02F0FAFC204603215F
S3150800066002F0FCFC02F002FD02F0E6FC112102A8F1
S315080006700AF06AFB03210AA80AF06DFB01200AF0BA
S3150800068071FB002840F2017008BF002012B010BDAF
S31508000690F4BE0008FABE000870B5134C134E20606D
S315080006A01348144D016014490A60144A1360049AE9
S315080006B0134B1A6033780BB10AF030FB2B78002BFA
S315080006C0F8D0104B1B784BB123689A784AB1DB787F
S315080006D040F20570002B18BF002070BD40F2037071
S315080006E0FBE740F20570F8E7701200205726002055
S315080006F0681200205626002064120020601200208E
S315080007006C12002055260020B0F5B31F70B50E46B2
S31508000710144619D2C0F5B31300F10065934205F5E6
S31508000720C03511D348B94FF000639B6A074A596927
S31508000730914202D9186900F031FA22463146284614
S31508000740BDE870400AF09CB870BD00BF0080010883
S315080007507FB56FF0006200F178419142034619D2E5
S315080007606D460D4A02F110062C461068516808328B
S3150800077003C4B2422546F7D15A1E04A90F3311F80D
S31508000780014D12F8010F844204D19A42F7D1012093
S3150800079004B070BD0020FBE7FEBE0008F0B5036894
S315080007A0044603F16043B3F5802F9FB031D84FF06C
S315080007B00067BB6A42681E6996422AD82E4B9A423F
S315080007C027D8456B06F14002AA4252D89D4250D816
S315080007D02846FFF7BDFF00284BD028460AF083F8C5
S315080007E080B16B6973B1022B0ED1AB69C4F10401F8
S315080007F019444FF0FF32204600F004FE1F4BC31A7F
S31508000800584258411FB0F0BD7F6B3846FFF7A0FF2E
S3150800081008B90020F6E7A6F150039F42F9D8284602
S3150800082003A90AF067F80028F3D0039DAE42F0D872
S31508000830AC42EED8104B9D42EBD804A800F0A6FEB9
S3150800084021462A1B04A80AF0C5F904A80AF0C4F927
S3150800085000F0ACFE044600F0C7FE23460090294689
S3150800086005F1200204A800F011FEB0FA80F0400954
S31508000870C8E70120C6E700BF00001808E320BBDE72
S3150800088070B54FF0FF3292B005460C4600F0BAFD3F
S315080008901C4B984232D14FF480621B4B00219A665A
S315080008A001A820220BF044F9184B29466846043C57
S315080008B000930BF0D5FA214668460BF0D1FA684644
S315080008C00BF0D7FA0BF081FA0646B8B940F20220C7
S315080008D000F042F9202231460AA80BF029F90C4B00
S315080008E0294609A809930BF0BBFA09A821460BF07B
S315080008F0B7FA09A80BF0BDFA0BF067FA002012B098
S3150800090070BD00BFE320BBDE009000500100054328
S31508000910010006434FF4806230B50446154B93B088
S315080009209A660021202201A80BF002F9124B2146F3
S31508000930684600930BF094FA68460BF09AFA0BF0A7
S3150800094044FA054698B940F2022000F005F920223B
S3150800095029460AA80BF0ECF8084B09A82146099382
S315080009600BF07EFA09A80BF084FA0BF02EFA002099
S3150800097013B030BD0090005000000243000003434E
S315080009804FF4806210B50F4B8CB004469A6600216E
S31508000990202204A80BF0CCF80B4B009403930123F8
S315080009A001930A4B694603A802930BF07FFA03A842
S315080009B00BF05FFA0BF009FAB0FA80F040090CB0B8
S315080009C010BD00BF0090005000000843040000203E
S315080009D000487047008001081A4B10B5D3F88420E8
S315080009E0110606D44FF400621A67D3F88420D2069B
S315080009F0FBD409F0B5FF00F099F809F02FFF09F0CC
S31508000A002FFF18B14FF401700AF02AF8FFF73AFDE4
S31508000A10044609F027FF34B940F201200AF020F80D
S31508000A204FF4017009E040F203739C42F4D0A4F23B
S31508000A300574012CF4D840F203200AF011F80020BE
S31508000A4010BD00BF0040005001232DE9F3418DF889
S31508000A5006308DF807302F4BD3F894305A060FD549
S31508000A6000F086F8A0F2022080B2072808D8C92329
S31508000A70C340DB0742BF00238DF806308DF80730E8
S31508000A80254B5B68013308D14FF4027000F064F817
S31508000A9000238DF806308DF807309DF807305BB1D6
S31508000AA01D48FFF77BFE8DF806009DF806301BB93A
S31508000AB04FF4027000F050F89DF8063033B34FF447
S31508000AC080464FF0FF320024144B154D9E6603F105
S31508000AD074431A6602F580025A66C5F8D040BFF319
S31508000AE04F8FBFF36F8F4FF440380E4F204602F0FA
S31508000AF075FA2046C7F8108002F090FA0A4B0648A5
S31508000B00C7F80C809E66A86009F02EFF02B0BDE803
S31508000B10F08100BF004000500020010800900050FE
S31508000B2000ED00E000A0004400A000504CF23C326A
S31508000B30014B5A80704700BF000000204AF6C030BB
S31508000B40044B5B8823F00F039BB21B1A584258418B
S31508000B50704700BF00000020044A08B51080FFF760
S31508000B60EDFF10B94FF20F03538008BD00000020B7
S31508000B704FF20F01084B5A888A4201D118887047EC
S31508000B803AB91B8840F20220012B18BF4FF40070B7
S31508000B9070474FF400707047000000204FF4803211
S31508000BA008B5044B9A6601F0FFFEB0FA80F04009DA
S31508000BB008BD00BF00900050072BF8B506460F4643
S31508000BC014461D4601D90020F8BD0121202001F058
S31508000BD0A9F90121212001F0A5F98CB144EA0603FF
S31508000BE09B07F0D14FF48032064B31469A66284669
S31508000BF023463A4601F000FFB0FA80F04009E3E7E1
S31508000C000120E1E70090005030B5024600230C258C
S31508000C10054905FB03F460180C59944203D00133C7
S31508000C200C2BF6D1002030BDA8BF0008F0B5002374
S31508000C30082787B0CDE9013315463B46009704AA35
S31508000C40044609F035FF41F203039842064623D1CC
S31508000C5094F8433053B13A46E06C04A909F0BAFF58
S31508000C6004AA3B461146A06C09F0A3FF059A049B0B
S31508000C706A6094F843202B6052B9094A934207D018
S31508000C80084A934204D00822E06C04A909F0A2FF9E
S31508000C906B68236500236365304607B0F0BD00BF67
S31508000CA0F70A0AF7FC0404FC2DE9F04799465B6845
S31508000CB004460F469046002B3FD08B0740D14FF095
S31508000CC000639B6A006E1B6981181D1DA9421BD310
S31508000CD01C33984218D2A842024638BF2A4699427F
S31508000CE094BFC2EB010AC2EB030A101A3E18C5F1FB
S31508000CF0680010443146524620440AF021FF524605
S31508000D00FF2130460AF014FF226E0F4B9A420BD889
S31508000D100E4902EB0800884206D99B1AFA58C4F80D
S31508000D2080204FF0FF32FA50D9E90035424639465D
S31508000D30206EA847236E434423660020BDE8F0874B
S31508000D4041F20200FAE700BF0480010807800108A3
S31508000D502DE9F04100254FF0FF3704468846164630
S31508000D6003F0200380F842301822FF21C0E9185505
S31508000D70A0F8405080F84350A0F8445080F84650F8
S31508000D80C0F8887068300AF0D3FE88222946C4E97C
S31508000D901286C4F88070C4F8847004F190000AF0D2
S31508000DA0C7FE074BC4F82071C4E9463584F82451B8
S31508000DB016B1304600F0EAFB0020BDE8F08100BF1E
S31508000DC0000101012DE9F04F9BB09946CDE90723B3
S31508000DD0002304460E464FF00108249D09930999FD
S31508000DE0B8E094F846300C2B00F2B080062B7BD97D
S31508000DF008FA03F212F4286F40F0DF8112F4885FD4
S31508000E0040F09E810A2B40F0A580DFF810B4636D90
S31508000E10072B00F24E814FF0080A38232046CDE909
S31508000E200188CDF800A00CAA07A909F041FE41F2F5
S31508000E300303984240F0A780337843F004033370E5
S31508000E400D9BB36273785F071CD50020236DCDF820
S31508000E5028B0C4F8843094F84530606643F002033D
S31508000E6084F84530EF686FB104222B680AA9B847A1
S31508000E70606E2B685246EF680CA95044B847636EFB
S31508000E80103363660B2384F84630C0E7A3F10E02DD
S31508000E90052A00F23F82DFE812F0AD020600F500EF
S31508000EA0EE01EE01AB020027636D0F2B00F29A806C
S31508000EB0102320460093CDE9018740230AAA07A9F3
S31508000EC009F0F6FD41F2030398425CD1D4F848A034
S31508000ED000F0A8FB80230221CDE900030BAA012319
S31508000EE0504600F0A7FADFE7013B052B37D8DFE8C5
S31508000EF013F07B00750006006401D3002F0101275B
S31508000F00636D072B00F2D580082320460093CDE9B0
S31508000F10017740230AAA07A909F0CAFD41F203038B
S31508000F20984230D1337843F0020333700A9B7360DA
S31508000F30236D083B73620B9BB3F1006F00F0E080F2
S31508000F40132384F8463041F201001CE0A3F10D0298
S31508000F50062A9BD94945FFF444AF002064E02046A1
S31508000F600AAA07A9FFF762FE41F2030398420AD1CB
S31508000F700B9B0A9A236500236365A64B9A42DFD129
S31508000F80022384F8463041F203030590059A9A42F3
S31508000F903FF425AF47E0082320460093CDE90187B3
S31508000FA040230AAA07A909F083FD41F203039842E0
S31508000FB0E9D10A9B03F07F43B3F1407F05D01323A1
S31508000FC041F2090084F84630DDE70B9BD80706D5C1
S31508000FD094F8423043F0010384F842300027636DE9
S31508000FE0072BD8D90123B0E020460AAA07A9FFF79C
S31508000FF01DFE41F203039842074609D10A98FFF7F6
S3150800100003FE024698B9132341F2080784F84630CE
S3150800101041F203030597059A9A423FF4E0AE059B11
S315080010200BB10023F37005981BB0BDE8F08F437928
S3150800103094F82411994205D9132341F20E0784F82E
S315080010404630E5E701687448814205D01189C90729
S3150800105048BF013384F8243194F84230D8070DD5B7
S31508001060118994F84330890706D53BB1132341F219
S31508001070010784F84630CBE7002BF7D0137984F8BC
S315080010804630C5E7226D0123A265002284F8433065
S31508001090E26584F84630A2E600213C220BA80A91B4
S315080010A001270AF045FDD4E91432934204D884F89E
S315080010B0467041F2030066E7009320464023CDE9D7
S315080010C001770AAA07A909F0F3FC41F2030398423B
S315080010D07FF459AF0DF1280C06F108030DF1400E07
S315080010E0624603CA724518605960944603F10803BC
S315080010F0F6D110681860337843F001033370D2E7ED
S31508001100042384F8463094F8453043F0010384F804
S31508001110453000236366F3E6042320460093CDE9B1
S31508001120017740230AAA07A909F0C2FC41F2030382
S3150800113098427FF428AF226D0A9B042A01D92366B8
S315080011400127636D032BE7D9092384F84630B0E7F6
S315080011500023636607239CE79F423ED89F4228BF29
S315080011601F4640232046CDE9018800970AAA07A909
S3150800117009F09EFC41F2030398427FF404AF94F809
S3150800118046B0BBF1070F37D0042FC7F1040A88BF52
S315080011904FF0000A0AAB5246FF21D8190AF0C8FCDC
S315080011A0BBF1090FBA443BD12B46524620460AA941
S315080011B0FFF77AFD00287FF4E6AED4E914739F4260
S315080011C07FF610AFFF1ADDE908329B1A94F8402023
S315080011D0032F1344C0D9032B05D8204607A909F0C5
S315080011E046FC0020CFE6402F28BF40279F4228BF55
S315080011F01F4627F00307B4E7D5F808A0BAF1000F91
S31508001200C2D02B683A46606E0AA9D047636E3B4443
S315080012106366D2E7EB17A603F90707F9EB17A65E8D
S31508001220BBF1040F1DD173789807C6D5EB68002B60
S31508001230C3D0626E042A0BD80AEB0203062B07D921
S315080012400BAB9B1A1A68C4F884204FF0FF321A6059
S31508001250EF682B685246606E0AA9B847636E534416
S31508001260D6E7BBF10B0FA8D173785907A5D5EF6858
S31508001270002FEED1A1E74FF000618A6A496B126927
S31508001280503A91423FF65FAE112B0AD194F81831C5
S31508001290002B7FF4A7AE132341F2060084F84630EC
S315080012A071E694F84430002B7FF49CAECDE9013307
S315080012B04023204600930AAA07A909F0F9FB41F240
S315080012C0030398427FF45FAEE06C09F085FC94F85E
S315080012D018316BB104F1B4030093E06C04F1940384
S315080012E012AA0AA900F0D2F878B10023F370D2E75F
S315080012F0D4F84CA000F05AF9074600F075F93B46B9
S31508001300009012AA50460AA9ECE70123F37084F864
S31508001310443067E600234FF00408CDE90133204640
S315080013204023CDF800800AAA07A909F0C1FB41F2BB
S315080013300303984209D1D4F88820304B9A4206D044
S31508001340132341F2050084F8463005906BE6012325
S31508001350F37094F84530DA0707D5EF682FB142469F
S3150800136040462B6804F18401B84794F845309B073A
S3150800137007D5EF682FB104222B68104604F18401C3
S31508001380B847236E6BB36F685FB34FF0FF3304F152
S3150800139080080422414606A806930AF09FFB20B15E
S315080013A0042241462B681648B84704F16809042206
S315080013B0494606A80AF092FB98B14FF000639B6A6B
S315080013C01422D3F8108004F16C0108F10800D5E95D
S315080013D00037B847D5E900370422494608EB02002A
S315080013E0B8470123B3700E23002084F84630ACE7D3
S315080013F00023F37041F2070016E600BFE320BBDEC8
S315080014000480010830B50824094B00255C660124D0
S3150800141003F5FE235C6001449D601A61DC60884226
S3150800142001D1586A30BD10F8012B1A62F7E700BFE0
S31508001430009000502DE9F04116464FF480621D4693
S31508001440114B00F1200804469A6640460F4609F0FB
S3150800145014FCDDE90612404609F013FC002384F863
S31508001460587063643368C4F859307368C4F85D30DB
S31508001470B368C4F861302B0C6DBA84F86530A4F8EB
S315080014806650BDE8F08100BF009000502DE9F0439A
S3150800149015464FF480621C46364B9BB0DDF88890A3
S315080014A00E4607469A66002861D000295FD0002DAF
S315080014B05DD0002C58D0304B304AB9F1000F14BF1C
S315080014C0984690462022002112A80AF031FB2C4BA0
S315080014D0414611A811930AF0C3FC202111A80AF06D
S315080014E0BFFC0122274B029403920493CDF8149073
S315080014F00692079354B1B9F1000F07D002A911A8B3
S3150800150009F0B1FB05A911A809F0ADFB0897012759
S315080015101C4C08A911A809970A9409F0A4FB0BA961
S3150800152011A80B960C970D940E950F97109409F029
S315080015309AFB0EA911A809F096FB11A80AF099FCC6
S31508001540114B01934FF098435A6CD202FCD55B6D50
S3150800155040F2046003F470230193019B002B08BF3B
S3150800156000201BB0BDE8F083DFF81080AAE740F240
S315080015700160F6E7009000501F2400801F24FC84B9
S315080015800000010620000020785634124FF48062CD
S3150800159010B50446044B9A6609F021FB2046BDE8BF
S315080015A01040002109F01FBB009000504FF48062E4
S315080015B000B50B4B9BB09A660021282268460AF0B4
S315080015C0B7FA4023002168460AAA01F049FB20F031
S315080015D010000128034818BF00201BB05DF804FB63
S315080015E0009000504CE317084FF4806200B50B4B8F
S315080015F09BB09A660021282268460AF099FA402389
S31508001600002168460AAA01F02BFB20F010000128E9
S31508001610034818BF00201BB05DF804FB009000507B
S315080016206CE317080048704786E217082DE9F34768
S315080016301446DDE90A920D461F4600284DD14CB3E3
S3150800164013683F2B2AD8516851B32549002F14BF78
S31508001650B846884603F03F061B19136022BF536835
S3150800166001335360FEB93F2C0ED9A3092A460093CD
S3150800167041463B46002000F083F824F03F031D4412
S3150800168004F03F0434B100262246294609EB060039
S315080016900AF056FA002002B0BDE8F087B846D9E746
S315080016A0DFF83C80D6E7C6F1400A5445ECD3294614
S315080016B0524609EB06000AF043FA01232644009332
S315080016C04A463B4641460020A6F1400400F058F839
S315080016D03F2C5544D6D9B846C7E70248DBE700BFD2
S315080016E078C0000880AFFFFF2DE9F041174614685F
S315080016F086B01E46E3008DF80F3063098DF80E306C
S31508001700630B8DF80D30630D8DF80C305368054664
S31508001710DA0002EB54728DF80B2004F03F045A09E4
S31508001720372C8DF80A204FEA53324FEA53538DF877
S315080017300920884694BFC4F13802C4F17802CDE97D
S3150800174000178DF808300D4903460020FFF76EFF95
S3150800175008222B460020CDE900870DEB0201FFF792
S3150800176065FF284605F1200350F8042B984246F8F1
S31508001770042BF9D1002006B0BDE8F08138C0000876
S31508001780F0B517464FF480621D46264B93B09A660D
S3150800179024220E46044600210DEB02000AF0C8F981
S315080017A001204FF000520097019002920396049090
S315080017B00592069507900892002C2FD1189C1A4B73
S315080017C0A401214609A809930AF04AFB029B03A92A
S315080017D01C430294059B09A843F020030593089B24
S315080017E043F02003089309F03EFA694609A809F070
S315080017F03AFA06A909A80AF059FB09A80AF039FB1A
S315080018004FF098435A6CD202FCD55B6D13F4702FD7
S3150800181014BF6FF06F00002013B0F0BD6FF07100B9
S31508001820FAE700BF0090005000040103BFF34F8F92
S315080018300549064BCA6802F4E0621343CB60BFF35E
S315080018404F8F00BFFDE700BF00ED00E00400FA057A
S315080018502DE9F04104460C254FF00108124E0CB351
S3150800186014F001000BD0002024F0010405FB0062EF
S315080018705768002FF3D09168C0B2B847EFE7224601
S31508001880013020284FEA520201D0D307F8D508FACA
S3150800189000F20F2824EA0204E8D9103805FB006292
S315080018A0B432E5E7BDE8F0817412002010B50446AD
S315080018B0E8B10378C3B1012B03D0022B14D0032B54
S315080018C017D13F236278D340DB0712D50AF094FA82
S315080018D00122637821789A4030235943064B5A509F
S315080018E00AF085FA002010BD40F2FF33EAE722200D
S315080018F0F9E72120F7E700BF40D0035010B50446AA
S31508001900E8B10378C3B1012B03D0022B14D0032B03
S3150800191017D13F236278D340DB0712D50AF06CFA59
S315080019200122637821789A4030235943064B5A504E
S315080019300AF05DFA002010BD40F2FF33EAE72220E4
S31508001940F9E72120F7E700BF40E0035008B501F0AA
S31508001950DDF8054B00F0553020F05020C3F8200480
S31508001960BDE80840FFF774BF00E0035008B501F072
S31508001970CDF8054B00F0AA3020F0A020C3F82004CB
S31508001980BDE80840FFF764BF00E00350184B2DE997
S31508001990F0411F6D5B6D1F4000D5FEE7012600254F
S315080019A0144CDFF85880374218D02368C8F85060BE
S315080019B0A3B1A168284601316268A1609847637B94
S315080019C0012B0BD150B90C4B03EB45131A7B60F373
S315080019D041021A731A7F60F341021A770135082DFE
S315080019E04FEA460604F11004DDD1BDE8F08100BFD8
S315080019F000000450DC140020DC13002000200450F2
S31508001A00044BD3F88420D206FBD4D3F88400C0F361
S31508001A10811070470040005038B5174B0546D3F87B
S31508001A2028310C4603F00703013B052B20D8DFE8D5
S31508001A3003F003131B0F0B170AF090F8052305B1E3
S31508001A40286004B1236038BD0AF088F80623F6E753
S31508001A500AF034F90723F2E70AF02CF90323EEE734
S31508001A600AF028F90423EAE70AF020F90223E6E750
S31508001A7000231846E3E700BF00800050002337B56F
S31508001A800193164B0546D3F820320C4603F007039C
S31508001A90042B21D8DFE803F0030B11161B000123E2
S31508001AA00DB1019A2A6004B1236003B030BD00214C
S31508001AB001A8FFF7B1FF1223F2E70AF0FFF80723A0
S31508001AC00190EDE70AF07BF90A230190E8E70AF0AE
S31508001AD073F909230190E3E70023E1E7008000504A
S31508001AE038B5104B0546D3F880300C4603F003038F
S31508001AF0022B0BD0032B0DD0012B0FD10AF0ACF81B
S31508001B000E2305B1286004B1236038BD0AF0D6F863
S31508001B100723F6E70AF022F80623F2E70023184619
S31508001B20EFE700BF0080005038B5104B0546D3F8E4
S31508001B3000310C4603F00303022B0BD0032B0DD008
S31508001B40012B0FD10AF0B6F8032305B1286004B1BA
S31508001B50236038BD0AF030F90923F6E70AF02AF9B6
S31508001B600823F2E701230020EFE700BF00800050BA
S31508001B7038B5184B0546D3F820010C4600F0070087
S31508001B80062823D8DFE800F0040A0E16121A1E00EB
S31508001B90012305B1286004B1236038BD09F0DEFFD2
S31508001BA00523F6E70AF086F80323F2E70AF086F833
S31508001BB00723EEE70AF07AF80223EAE709F0CEFFF0
S31508001BC00623E6E70AF076F80423E2E70023184638
S31508001BD0DFE700BF0080005038B5104B0546D3F844
S31508001BE040310C4603F00303022B0BD0032B0DD018
S31508001BF0012B0FD10AF0E3F80A2305B1286004B1D6
S31508001C00236038BD0AF0D8F80923F6E70AF0DAF8AF
S31508001C100C23F2E701230020EFE700BF0080005005
S31508001C20002337B50193164B0546D3F860320C46A8
S31508001C3003F00703013B032B1FD8DFE803F0020E6E
S31508001C401914002101A8FFF793FF10230DB1019A7B
S31508001C502A6004B1236003B030BD002101A8FFF754
S31508001C60BBFF1123F2E70AF029F807230190EDE7F5
S31508001C700AF01CF802230190E8E70023E6E700BF14
S31508001C8000800050002337B50193164B0546D3F85C
S31508001C9094320C4603F00703013B032B1FD8DFE8F9
S31508001CA003F0020E1914002101A8FFF761FF1023A3
S31508001CB00DB1019A2A6004B1236003B030BD00213A
S31508001CC001A8FFF789FF1123F2E709F0F7FF0723B9
S31508001CD00190EDE709F0EAFF02230190E8E7002307
S31508001CE0E6E700BF0080005038B5104B0546D3F82C
S31508001CF060310C4603F00303022B0BD0032B0DD0E7
S31508001D00012B0FD10AF05BF80A2305B1286004B14C
S31508001D10236038BD0AF050F80923F6E70AF052F8AE
S31508001D200C23F2E701230020EFE700BF00800050F4
S31508001D3073B50D460021114B0191D3F88041064633
S31508001D4004F00304022C13D0032C0CD0012C13D15D
S31508001D5001A8FFF70DFF10240EB1019B336005B1F2
S31508001D602C6002B070BD09F0A9FF07240190F3E7C3
S31508001D7009F09CFF0190EFE70C46EDE70080005064
S31508001D8038B5104B0546D3F840320C4603F003032A
S31508001D90022B0BD0032B0DD0012B0FD10AF00FF815
S31508001DA00A2305B1286004B1236038BD0AF004F897
S31508001DB00923F6E70AF006F80C23F2E701230020C8
S31508001DC0EFE700BF0080005038B5144B0546D3F83E
S31508001DD000020C4600F0070004281BD8DFE800F0D4
S31508001DE003090D111500012305B1286004B123600C
S31508001DF038BD09F0E4FF0A23F6E709F0DDFF0923F9
S31508001E00F2E709F0DFFF0C23EEE709F03DFF0F23A9
S31508001E10800AE9E700231846E6E700BF008000507D
S31508001E2038B5144B0546D3F808020C4600F00700EF
S31508001E3004281BD8DFE800F003090D11150001235B
S31508001E4005B1286004B1236038BD09F0B8FF0A233C
S31508001E50F6E709F0B1FF0923F2E709F0B3FF0C230F
S31508001E60EEE709F011FF0F23800AE9E70023184679
S31508001E70E6E700BF00800050B0F5207F1FD009D8E4
S31508001E80B0F5007F15D003D868B1B0F5C07F0AD089
S31508001E9000200CE0B0F5607FFAD10B4BD3F8800038
S31508001EA0C0F3011003E0084B186FC0F3033001308C
S31508001EB07047054BD3F89000C0F30460F7E7024B70
S31508001EC0186FC0F38020F2E70080005002464FF4F6
S31508001ED08030104B10B598660020FFF7CDFF5043B1
S31508001EE041F671320C4BDC69DA635A6804F48034C3
S31508001EF022F4401259B90949884294BF00200120AA
S31508001F00000502435A600CB10022DA6310BD044989
S31508001F10F2E700BF0090005000000350005A62022A
S31508001F20002D3101430905D0012B0CD0022B084B9B
S31508001F3018BF002300F01F0039B103F580530122B2
S31508001F4082401A607047034BF4E703F50053F6E73F
S31508001F5068800050648000501FB50021B0F5807F6E
S31508001F600446CDE9001100F0D2803AD85E2833D86D
S31508001F705E2833D8DFE800F0453232323232323268
S31508001F803232323232323232323232323232323223
S31508001F90323232323232323245AC45ACBCBCBCBCD1
S31508001FA0BCACC64E6BDC4EACACAC323232323232E2
S31508001FB03232ACACAC7EE6AC32323232323232320B
S31508001FC03232323232BC454545E14E4EEB8D63C165
S31508001FD032323232329E4500802870D0009804B0E2
S31508001FE010BDB0F5D06F00F0A38035D8B0F5607F8E
S31508001FF079D01AD8B0F5007F65D005D8B0F5C07F7E
S31508002000ECD109F041FE5CE0B0F5207F60D0B0F578
S31508002010407FE3D109F038FE02464FF42070FFF7FF
S315080020202BFFB2FBF0F252085BE0B0F5B06F69D057
S315080020300AD8B0F5806F5BD0B0F5A06FCED100217D
S315080020406846FFF71BFDC9E7B0F5C06FC6D100218A
S315080020506846FFF7C1FDC1E7B0F5106F6DD00ED821
S31508002060B0F5086F78D0B9D8B0F5E06F6AD0B0F59A
S31508002070F06FB3D100216846FFF736FEAEE7B0F53C
S31508002080406F3AD013D8B0F5206F60D0B0F5286FFE
S31508002090A4D10021324B0391D3F8703203F0030325
S315080020A0012B02D103A8FFF797FD039B39E0B0F592
S315080020B0486F93D100216846FFF7E4FD8EE709F0E3
S315080020C0CBFD00908AE709F0C7FD0246204604E0EA
S315080020D009F0DAFD02464FF42070FFF7CDFEB2FB99
S315080020E0F0F200927AE701A8FFF7FAFC019AEDE709
S315080020F000216846FFF73CFD70E700216846FFF7B8
S315080021008BFC6BE700216846FFF712FE66E74FF087
S31508002110E02302911B695B0705D509F0B5FD02901E
S31508002120029B00935AE703A902A8FFF755FDF7E7B4
S3150800213000216846FFF748FE50E700216846FFF78A
S315080021406FFE4BE700216846FFF71AFE46E70021B7
S315080021506846FFF765FD41E76846FFF7E5FC3DE79A
S315080021600080005008B58020FFF7F6FE034B984222
S315080021709EBF4FF48032024B1A6708BD005A6202AE
S3150800218000A000501FB503460020B3F5807F0190DC
S3150800219000F0C58065D85D2B56D84C2B07D82D2B5B
S315080021A048D8232B2CD8019805B05DF804FB4D3B85
S315080021B0102BF8D801A252F823F000BF1523000807
S315080021C0A7210008A7210008A7210008C3220008A4
S315080021D0A7210008A72100086F230008E1220008AC
S315080021E08722000865230008A7210008A721000800
S315080021F0A7210008A7210008A721000879230008BD
S31508002200243B092BCFD801A252F823F01523000846
S3150800221015230008152300081523000815230008B0
S31508002220A72100080B230008A7210008A3220008FD
S315080022304B2300083D2B00F083803E2BB3D10020B2
S3150800224001A9FFF79DFDAEE7802BACD1504B1B6F64
S3150800225003F00703013B032BA5D8DFE803F0544D31
S315080022605052B3F5F06F6BD020D8B3F5B06F4CD0A1
S315080022700ED8B3F5607F71D095D3B3F5806F49D08A
S31508002280B3F5A06F8FD1002001A9FFF7F7FB8AE706
S31508002290B3F5D06F59D0B3F5E06FD0D0B3F5C06FB2
S315080022A081D1002001A9FFF797FC7CE7B3F5206FE1
S315080022B05DD00BD8B3F5086F4CD0B3F5106F7FF42B
S315080022C072AF002001A9FFF7ABFD6CE7B3F5406FCD
S315080022D048D0B3F5486F4FD0B3F5286F7FF463AF96
S315080022E02B4BD3F8703203F00303012B49D0022B92
S315080022F00CBF1523002300E00523019353E70323AE
S31508002300FBE70823F9E70223F7E7002001A9FFF70F
S315080023100FFD48E7002001A9FFF72AFC43E74FF025
S31508002320E02302901B695B0705D509F0ADFC0D2378
S315080023300393039BE1E703A902A8FFF74DFCF8E71F
S31508002340002001A9FFF7D0FC2DE7002001A9FFF71F
S315080023503BFD28E701A9FFF7E7FB24E701A9FFF7FB
S31508002360BFFB20E7002001A9FFF756FB1BE700206B
S3150800237001A9FFF755FC16E7002001A9FFF782FC23
S3150800238011E7002103A8FFF727FC1123B5E700BFD3
S31508002390008000504FF48012034B5A664FF4803287
S315080023A0024B9A62704700BF009000500050005AD6
S315080023B038B504468020FFF7E5FE032800F0838041
S315080023C04FF48012524B4FF0A0615A6645F60E0242
S315080023D0504BC3F88020504A91624FF4803102F581
S315080023E0805291629A6DD203FCD4996D11F08041A6
S315080023F0FBD1D4E90002120542EA0062E07B0243FF
S31508002400207B42EA0042607B42EA0032A07B42EA35
S3150800241080121A619869D4E90452120642EA856262
S3150800242000F000400243A07EE57E0243207E42EA99
S315080024300042607E42EA00229A611A6AE06922F046
S315080024400F0242EA8502354D00283DD11A6294F8FA
S315080024502420996A94F82000D200294042EA4012C2
S315080024600A4394F8211042EA011242F480329A6231
S315080024702B49284A936D31EA0303FBD14FF080714B
S31508002480254881621369A56823F4700343EA055356
S3150800249013614FF00043836194F822300BB9214B46
S315080024A0996294F823303BB94FF480321D4B9A62F7
S315080024B0184A936D5B00FCD494F825301BB1154B74
S315080024C0194AC3F8802038BD024342F008020228A0
S315080024D01A6208D119614FF40852996113484FF4EA
S315080024E07F4108F099FB0B4994F822308A6A94F8E0
S315080024F020001B062A4043EA4013134394F824207D
S3150800250043EAC20394F8232043EA02438B62D3E7E3
S31508002510009000500040005A0050005AC7FFFEFEC7
S31508002520030001000060005AF1A7FFFF3440005A7B
S31508002530014B93F900007047FC260020014B1880D8
S31508002540704700BFEC260020B0F5207F10B50C467A
S315080025505DD008D8B0F5007F4ED003D8C0B1B0F52D
S31508002560C07F15D010BDB0F5607FFBD12C4B4C1E3B
S31508002570D3F8FC202B4912F0807F4FEA041427D1A8
S31508002580D1F8803023F030032343C1F88030E9E7DF
S3150800259008F051FB08F05DFB4FF48031224B214ACD
S315080025A01967136F013C23F4704343EA0433136736
S315080025B009F06AFB0446FFF723FAC0F10201204638
S315080025C008F041FB00F04AF8BDE81040FFF7CABD25
S315080025D0D3F8FC2022F08072C3F8FC20D1F88020C2
S315080025E022F030022243C1F88020D3F8FC2042F0C2
S315080025F08072C3F8FC20B5E70A4A4C1ED2F8903020
S3150800260023F0F85343EA0463C2F89030AAE7054A70
S315080026104C1E136F23F4806343EA84231367A1E7F0
S3150800262000ED00E0008000500090005008B5012140
S31508002630022000F04DF84FF42070FFF71DFC054B03
S31508002640187008F0F8FA08F004FB4FF48032024BD1
S315080026501A6708BD582600200090005008B54FF4A8
S31508002660C070FFF779FCBDE808400449884294BF6A
S31508002670012102214FF42070FFF766BF80F0FA02AD
S3150800268038B5044609F000FB0546FFF7B9F9C0F16D
S315080026900201284608F0D7FA0121002000F058F870
S315080026A02CB1FFF7DBFFBDE83840FFF75BBD034BF6
S315080026B04FF420701978FFF747FFF4E758260020F3
S315080026C0024A536B0342FCD1704700BF00400950D1
S315080026D0F8B504461C4BD3F88420D106FBD4D3F8AE
S315080026E08430C3F381139C422CD009F0B5FA012C2F
S315080026F0064602D1214608F0A6FA09F074FB4FF007
S315080027000072124B07465A66204608F0A7FA4FF49D
S3150800271080630D4D621E93402B676B6E9A0103D43E
S31508002720D5F884309B060AD5384609F057FB022CA3
S3150800273008D13046BDE8F840002108F084BAD5F83B
S315080027408430EAE7F8BD00BF004000500060005042
S3150800275010B50C4608B909F07FFA074B21461B78D5
S315080027603BB1064B984204D80120BDE81040FFF75C
S31508002770AFBF0220F9E700BF59260020005A6202BF
S315080027804FF0004238B5244B244C5A664AF6CD33EE
S31508002790656C014605F00105236428BB0120FFF797
S315080027A08FFF6368DB0715D51D4B586008461D4B20
S315080027B0226BD2070CD4984208D1072415B1174BBF
S315080027C0194A1A6408F068FE204638BD0130EFE75A
S315080027D09842F2D00024F1E70132236B13F0080384
S315080027E005D08A42F8D1E8E700220E49F5E78A4281
S315080027F0E3D020210A4A91620121A2F58052516054
S315080028000649084A886A800603D49342D5D001331C
S31508002810F8E79342DDE700BF0090005000400950FA
S315080028200060095040420F003254FFFF4FF000424B
S3150800283038B5164B01465A664AF6CD33144C154A36
S31508002840656C236443780B205B0043F00103D36374
S31508002850FFF736FF63688A7823F4F87343EA0213AE
S315080028606360CA784B7943EA0223A3600A798B79B5
S3150800287043EA022323610878FFF782FFEB0744BF88
S31508002880054B236408F008FE012038BD009000506F
S3150800289000400950004000503254FFFF4FF00042FC
S315080028A0124B70B55D6E03F580535A664AF6CD3302
S315080028B004460F4980204E6C0B64FFF701FF0B6A34
S315080028C023F00F030F2C94BF234343F00F030B622F
S315080028D0F30744BF074B0B64002DA2BF4FF000421D
S315080028E0054B5A6608F0D8FD70BD00BF0080005041
S315080028F0004009503254FFFF00A000504FF000423C
S31508002900104B70B55D6E03F580535A664AF6CD33A3
S3150800291004460D4980204E6C0B64FFF7D1FE0B6A06
S3150800292023F4F85343EA04230B62F30744BF074B27
S315080029300B64002DA2BF4FF00042054B5A6608F003
S31508002940ABFD70BD00800050004009503254FFFFB7
S3150800295000A00050F0B5114A114C124E00F00105C6
S31508002960E3695F0713D40DB9334213D103EA0007AD
S315080029708F4207D10B4A1A40002A0CBF00206FF07D
S315080029800100F0BD013AEBD16FF00200F9E74FF014
S31508002990FF30F6E76FF00100F3E700BF8096980076
S315080029A000000350020001004FF4803238B50E4B88
S315080029B00E4C9A66E56941F6713315400122E363C8
S315080029C00B4B0021DA600223606121202361FFF7A7
S315080029D0C1FF10B92120FFF7BDFF0122054BDA60C0
S315080029E00DB10023E36338BD00900050000003508A
S315080029F000100350002003502DE9F04F01264FF434
S31508002A0030258400DFF8C4C004F1A04404F5882406
S31508002A10CCF804606560302500244FF48037DFF871
S31508002A20B0E0DFF8B09005FB00E5EC652C662C6796
S31508002A30214CDFF8A4A0A76641F671341F4F06FAA9
S31508002A4000F0D7F81C80FC631D4CE66043B90121F1
S31508002A501C4A18F4803FD16029D10020BDE8F08FC8
S31508002A6001F5005404EA0904641A9C4228BF1C466E
S31508002A707961D7F81CB0A6081BF0040F19D1013EDE
S31508002A80360146F060566E66AA66C5F86CA0CCF8A4
S31508002A902400DEF834603042FBD00B4E21447063CC
S31508002AA00426CCF8280022443E611B1BCEE7FB63B4
S31508002AB0D3E74FF0FF30D1E70090005000000350F5
S31508002AC0001003500020035000200450001004504A
S31508002AD00000045000E0FFFF180003504FF4803256
S31508002AE0064B5A6603F5E6239B69C3F38512827083
S31508002AF003F03F021B0B42700370704700900050B2
S31508002B00014B986CD96C70470080E00F034BD3F8E3
S31508002B102424D3F820041040704700BF00C0035097
S31508002B2070B5044608F0EBFC064630B90FCC044DE8
S31508002B300FC594E8030085E80300304670BD00BF62
S31508002B405C15002047F6FF739A42F0B56FD002294C
S31508002B506FD8394B5B5C012B6BD8384DDF0005EB22
S31508002B60C30415F83330A178012B13D10025E0787A
S31508002B70401AA84202D80844C0B2F0BD431B666892
S31508002B80A0EB530336F913609642D4BF1D4603F1F2
S31508002B90FF30EEE760680028EFD0B0F900409442B5
S31508002BA004DBB0F902409442B8BF144683883D441A
S31508002BB0FF2B19BFC8224FF0280CB0F90620B0F930
S31508002BC008C0A2EB04030CBF0126002693FBFCF306
S31508002BD033446E781BB29E4201DD002B01DA731E68
S31508002BE01BB24FF47A7C01339BB2071D5D1E2DB2D2
S31508002BF04FEAC50E00EBC505EA88AD689E4214FB90
S31508002C00025222EAE27202F15C02B2FBFCF204DD35
S31508002C1037F8335001339542E8D200EB0E03988813
S31508002C20904228BF1046884238BF0846A4E7FF20CE
S31508002C30A3E70020A1E700BF98C000085C150020A4
S31508002C4008B50448FFF76CFFBDE80840012008F006
S31508002C505ABC00BF9CC0000800487047EE260020FA
S31508002C601FB5044660B35AB3402B29D1930727D121
S31508002C70042925D8DFE801F0031A24221E004FF4A0
S31508002C80807310490B4323600023C4E90133236290
S31508002C900123019202930C4B204601A9039309F0E4
S31508002CA005F9204609F064F804B010BD4FF4007326
S31508002CB00449E7E705494FF48063E3E70149FAE782
S31508002CC02120F1E7010008FF40000020000008FF6E
S31508002CD02DE9F041012905460E4690461F4692B059
S31508002CE04AD8046824F04003802B02D0B4F5807FCC
S31508002CF045D1202200210AA808F01AFF234A244BAE
S31508002D000121012E08BF134609932B1D0093E408E1
S31508002D10204B44F00054019109A80294CDF80C8088
S31508002D2004910593069707916946089307F09BFF58
S31508002D3003A909A807F097FF06A909A809F0B6F894
S31508002D40296809A8C90809F08BF8102109A809F00B
S31508002D5087F808F0FBFFA8B909A809F08AF84FF028
S31508002D6098435A6CD202FCD55C6D08F0F9FF04F45E
S31508002D70702012B0BDE8F0816FF02000F9E76FF01F
S31508002D807100F6E74FF0FF30F3E700BF00010004DB
S31508002D9000010104100000202DE9F04F074689467E
S31508002DA09846164699B082B115683B6823F04002EA
S31508002DB0802A03D0B3F5807F40F0A68000244C45D6
S31508002DC005D306B1356000207BE01546EDE75DB119
S31508002DD0239B229A1B5D525D01355340249A05F0C8
S31508002DE00F0513550134EAE7A9EB040ABAF10F0FE8
S31508002DF00BD8239B03EB040A249B1C44239B03EB5D
S31508002E00090BDA4560D14C46D9E72022294610A895
S31508002E1008F08EFE3E4B3A680F933B1D0093012344
S31508002E20D20842F00052019302923A4ACDF80C8039
S31508002E3004930592CDF8188007930892239A24994B
S31508002E4022442AF00F0A099221444AF000520A93B2
S31508002E500FA80B920C9169460D930E9207F003FF8B
S31508002E6003A90FA807F0FFFE09A90FA807F0FBFEA4
S31508002E700CA90FA809F01AF806A90FA809F016F860
S31508002E8039680FA8C90808F0EBFF51460FA808F0E3
S31508002E90E7FF08F05BFF90B90FA808F0EAFF4FF0CC
S31508002EA098435A6CD202FCD5586D544400F4702BE2
S31508002EB008F056FFBBF1000F9BD0584601E04FF0D3
S31508002EC0FF3019B0BDE8F08F55B1229A1AF8013BC8
S31508002ED0525D0135534004F8013B05F00F0590E7B4
S31508002EE0424601213846229BFFF7F2FE0028E8D128
S31508002EF008F1100212F8013D0133DBB21370002B02
S31508002F00E3D19045F6D1E0E76FF01F00D9E700BF9F
S31508002F10030300041000002007B5094B18689A88B7
S31508002F209B7900906846ADF804208DF80630FFF7C7
S31508002F307DFC0C20FFF7B2FC002003B05DF804FB13
S31508002F40BCCF000830B58BB06C46174D0FCD0FC4FB
S31508002F500FCD0FC495E8030084E80300134BD3F89C
S31508002F604C2112031CD5A3F5FE431C884FF6FF73AC
S31508002F709C4208BF52248DF81940FFF7D9FA20441D
S31508002F8080F308008DF81800094807F066FC6846C3
S31508002F90FFF70EFA3220FFF7D1FA00200BB030BD4A
S31508002FA0D3F85041E4B2E6E7C4CF00080080E00F4A
S31508002FB0005A62020028ACBF00F16040064B4FEA97
S31508002FC00111C9B2ABBF00F5614000F00F0080F8EF
S31508002FD000131954704700BF14ED00E000280CDBFD
S31508002FE001220649430900F01F008240203341F8B8
S31508002FF02320BFF34F8FBFF36F8F704700E100E0C8
S31508003000002807DB01234109034A00F01F0083401B
S3150800301042F82130704700BF00E100E0002808DBD5
S3150800302001224309034900F01F008240603341F83A
S315080030302320704700E100E0014807F0C5BE00BF45
S3150800304074150020014807F094BE00BF74150020CF
S31508003050014800F053B800BF741500200A4601461F
S31508003060014800F07BB800BF74150020014800F045
S31508003070B5B800BF741500201FB50A79064B029231
S315080030800A6808310192022200920CCB07F07AFFF7
S3150800309005B05DF804FB00BFF8CF000830B50B7922
S315080030A085B00333029301F14403019302230C46CE
S315080030B00546114A009314310CCA07F063FF238AA8
S315080030C004F12C010293E36828460193237A0093BE
S315080030D094E80C0007F056FF0546237AA4F8450045
S315080030E02279216884F8443004F1470008F028FD65
S315080030F0284605B030BD00BFF0CF000838B50546F4
S31508003100124B134C94E8030083E80300194628463B
S31508003110FFF7B2FFD4E9020110220E4B83E8030041
S31508003120194628461A72FFF7B9FFD4E904010222A4
S31508003130094B18341A7283E80300DC6019462846DE
S315080031401A82BDE8384007F01DBE00BF7816002079
S315080031500CD0000820160020F4150020F8B5044607
S315080031600D4B0E4D0F46D5E9070183E803001946B6
S3150800317020461646FFF780FFD5E909010222084BCB
S315080031801A7283E80300DF60194620461E82BDE8EE
S31508003190F840FFF783BF00BFD41500200CD0000805
S315080031A07C15002010B50C4630B907F05EFB034BC2
S315080031B0186023600423A380002010BDC8180020CF
S315080031C010B50C4630B907F04EFB034B1860236068
S315080031D00423A380002010BDCC1800202DE9F74356
S315080031E006466D464FF00809404C414B414F94E85E
S315080031F0030083E8030019463046FFF73DFFD4E98C
S31508003200020187E8030028463B4987F8089007F03B
S31508003210B4FD95E8030007F10C0383E8030039467B
S315080032203046FFF73BFFD4E904010C234FF00208B0
S31508003230324F87E80300284631493B7207F09DFD67
S3150800324095E8030007F10C0383E803003946304686
S31508003250FFF724FFD4E906012A4B2B4A83E803002B
S315080032601946304683F80880DA60A3F81090FFF70D
S3150800327015FFD4E90801254B254A264FDA600122B5
S3150800328083E80300194630461A8283F80880FFF758
S3150800329005FFD4E90A0187E8030028461E4987F88E
S315080032A0088007F06AFD95E8030007F10C0383E838
S315080032B003003946194F3046FFF7F0FED4E90C01F2
S315080032C087E803002846164987F8088007F055FD61
S315080032D095E8030007F10C0383E8030039463046F6
S315080032E003B0BDE8F043FFF7D9BE00BFC0D0000861
S315080032F0A81800205018002009AE0008F81700206A
S31508003300F1AD0008A0170020B6D000084817002025
S31508003310B5D00008F0160020C13100089816002024
S31508003320A53100087FB500230130CDE9043380B20A
S31508003330054BCDE90101694604200093039207F085
S3150800334042FE07B05DF804FB5A2600201B22014BFB
S315080033501A80704738260020064B10B401241A71CB
S3150800336000221C7058705980042011465DF8044BE1
S31508003370FFF7D8BF5A2600200322044B1A700022F2
S31508003380A3F8010011460220FFF7CCBF5A260020F9
S3150800339082B00DF1080C0CE90C00064B052258709A
S315080033A003201A7059809DF80420009902B0FFF78F
S315080033B0B9BF00BF5A2600200722054B1A70002203
S315080033C0A3F80100A3F8031004201146FFF7AABFCB
S315080033D05A2600200A460B21024B19700146002086
S315080033E0FFF7A0BF5A2600201322034B1A700022AB
S315080033F011461046FFF796BF5A26002010B4092436
S31508003400044B1C70941C5C7058805DF8044B0320B8
S31508003410FFF788BF5A26002030B40C4611251146FE
S315080034201A46054B1D70151D5D7058809C80052039
S3150800343030BCFFF777BF00BF5A26002038B50023F7
S31508003440074D013989B204466B8000F03BF8024605
S3150800345028B169882078BDE83840FFF77DBF38BDB8
S3150800346038260020024610B5F8B1114B196888882D
S3150800347090421AD398880024904281BF0120096897
S31508003480988099609868998820B904B198604FF631
S31508003490FF7203E08A4203D10CB198609A8010BD8E
S315080034A001310124006889B2EEE70020F7E700BF82
S315080034B0D01800204FF6FF72014B18609A807047AB
S315080034C0D01800202DE9F04704780546122C0E4640
S315080034D088B017D8012C18D9A31E102B15D8DFE8E9
S315080034E013F0160014002700140047001400D1003A
S315080034F014008000140014001400140014000901BC
S315080035001400A400522C00F0AC8006242CE00229FA
S3150800351040F04681B0F80140B4F5007F28BF4FF46B
S3150800352000742046FFF728FF9E4B1C8000241BE0F2
S31508003530042919D1B0F8017006ADBEB22946304645
S3150800354007F09EFC044618B1964B5F800A240BE0F0
S315080035509DF81C303146022B18BF022095E80C0056
S3150800356008BF0120FFF714FF204608B0BDE8F08722
S3150800357002278E1F00F10508C31DB6B201960093F7
S315080035808DF81470CDF81080B0F803104246059BEC
S31508003590B0F8010007F081FC4FF6FF76B04204460A
S315080035A006D1AA786B7843EA02237E4A5380CDE790
S315080035B00023CDE90033CDF818808DF81C7008ABD0
S315080035C00130314613E90C0080B207F066FC01466B
S315080035D0B0421CBF00F1FF3189B22046FFF7ECFE6E
S315080035E0A4E7022940F0DC80B0F8010007F0A7FC48
S315080035F06C4E044628B16B78AA7843EA0223738096
S31508003600B2E733880146013BADF81030B5F8010042
S3150800361004AB06AA07F0A5FC04460028EBD1BDF8C2
S3150800362010100698FFF7D6FE9EE70821B0F80100AD
S3150800363007F085FC044630B1AA786B7843EA022382
S31508003640584A538090E7B31E01469BB2B5F801006D
S31508003650EA1C07F05BFC04460028EDD1FFF7C4FE20
S3150800366064E70421B0F8010007F069FC0146002868
S315080036707FF45CAFB31EB5F801009BB2EA1C07F0F5
S3150800368045FC53E70E1FB6B2022E02D0102E40F0AC
S3150800369087800024CDE900446B1D06938DF81C60D5
S315080036A008AB13E90C00B5F80310B5F8010007F0EC
S315080036B0F4FB4FF6FF73984206463A4F05D16B78EE
S315080036C0AA7843EA02237B8040E73B882146043BED
S315080036D0ADF80E3004AA0DF10E0307F042FC0446BD
S315080036E008B17E8040E73046BDF80E200499FFF702
S315080036F085FE39E70E1FB6B2022E01D0102E4FD125
S315080037000024CDE9004405F1050AF6B28DF81460E7
S31508003710CDF810A05246059BB5F80310B5F8010080
S3150800372007F0BBFB4FF6FF7948450746DFF874807C
S3150800373006D16B78AA7843EA0223A8F8023005E78F
S31508003740CDE90044CDF818A006AC8DF81C60013010
S3150800375094E80C00494680B207F09FFB0546B8F886
S3150800376000304845A3F1060318BF00F1FF3522468D
S31508003770ADF80E304FF0000138460DF10E0318BFB4
S31508003780ADB207F0EEFB044610B1A8F80270EBE6FE
S3150800379029463846BDF80E30069AFFF73DFEE3E6A1
S315080037A00424E1E6382600200022014B1A607047FF
S315080037B0DC18002003291FB503460A461CD90188D0
S315080037C0081D824218D304D85888042805D006282C
S315080037D007D0012005B05DF804FB181DFFF72EFE83
S315080037E0F7E70023CDE90233044B69460093022329
S315080037F0019307F0E8FBECE70020EBE7FD26002045
S3150800380037B500220DF10700114600F05FF89DF864
S3150800381007300C4C0BB10023236021680A4DC1F513
S31508003820017292B229440DF1070000F04FF823689F
S31508003830C11828462160FFF7BDFF08B100232360A1
S3150800384003B030BDDC180020E018002010B504468F
S315080038504FF4807300210E4A0E4807F040FC4FF4DF
S31508003860807300210C4A0D4807F039FC2046FCF706
S315080038707FFC07F0FCFB00F01DFC07F0E2FA83076B
S3150800388005D500F0E1FABDE8104000F07BB910BD9F
S31508003890141C0020FC1A0020141B0020E41A002027
S315080038A008B513460A460146024807F0D6FCC0B2D8
S315080038B008BD00BFFC1A002008B5034807F018FC2D
S315080038C0003818BF012008BDFC1A0020F8B50E46BE
S315080038D01746044608F087FA214605463B4632460F
S315080038E0044807F0BAFC0446284608F077FA20464A
S315080038F0F8BD00BFE41A002008B5034807F0F8FB36
S31508003900003818BF012008BDE41A0020F8B50E4695
S315080039101746044608F067FA214605463B463246EE
S31508003920044807F065FC0446284608F057FA20467E
S31508003930F8BD00BFFC1A002010B50C460146044825
S3150800394007F0B5FCA04234BF0020012010BD00BF1F
S31508003950E41A0020F8B50F46114606461546FFF745
S31508003960EBFF044628B12B463A463146024807F093
S315080039703FFC2046F8BD00BFE41A002010B5034CF2
S31508003980A07900F0DBFC0023236010BD141D002085
S3150800399010B5044C204600F067FC002344F8063CAA
S315080039A010BD00BF1A1D002010B5074CB4F807104B
S315080039B0A07900F08BFCB4F80D10B4F8090000F0FB
S315080039C099FC0023236010BD141D0020014B99802B
S315080039D018607047141D00200022014B1A607047BA
S315080039E0141D0020034A13681BB19288824200D135
S315080039F018477047141D0020014B18701846704769
S31508003A0061260020162808BF1320022110B5084C8D
S31508003A1060702046217000F085FC00F0D1FD054B52
S31508003A20054A05301A60627898809A7110BD00BF01
S31508003A3061260020141D00207D390008037810B582
S31508003A400C2B04460AD80C2B0AD8DFE803F03B27D0
S31508003A505209090909095B0909091500142B62D0DD
S31508003A60204600F095F8002842D1072223783A48E4
S31508003A700221027043700DE00C2337484FF0FF32E5
S31508003A80037001238270437002220371002306210A
S31508003A90C2704371BDE8104000F044BCC179837917
S31508003AA02E4A43EA0123938013462D4943F8061B01
S31508003AB0D0F80110C2F80610B0F805209A80C2792D
S31508003AC09A7115E0C27A837A244943EA02238B80E5
S31508003AD00B46244A43F8062BD0F80120C1F80620E5
S31508003AE0D0F805205A60B0F809201A81C27A9A726D
S31508003AF010BD00F065FD194B1B4A05301A60988009
S31508003B006278DDE700F06AF9D4F80130092163F03C
S31508003B10FF03034010480246C0F80130002302F8AC
S31508003B20011B5360B6E7B0F80310B0F8010000F0C7
S31508003B30EFFB1523084800216FF004046FF02702F5
S31508003B40037007238170817144700921C270037163
S31508003B504471C27103729DE761260020141D00207E
S31508003B6091390008A93900087D39000808B5044BC1
S31508003B70987900F0C7FBBDE80840FFF72DBF00BFE6
S31508003B80141D00200122014B1A7070476D26002073
S31508003B90144B70B51E7805462EB10378162B04D043
S31508003BA0182B13D00026304670BD8378447817202A
S31508003BB01C4004F00304022C18BF0124FFF71CFF65
S31508003BC002214470847007F04FFAECE7B0F803104E
S31508003BD00548FFF7FBFED5F80120044BC3F806207D
S31508003BE0E1E700BF6D2600206D3B0008141D00208C
S31508003BF013B50D4B01281B880C4CADF80030ADF8F9
S31508003C00043002BF02238DF8003004236946206879
S31508003C1008BF8DF8043007F00EFC206801A907F0EC
S31508003C2020FC02B010BD00BF20D100085C1D00209A
S31508003C3030B5224C87B025692DB322F48041083966
S31508003C40194322D1032101AA206807F089FC636879
S31508003C5060615B7A022023769DF8043004F118012E
S31508003C60DA1F53425341627E63F30002039B627676
S31508003C70E361BDF806306383236998470122002172
S31508003C80206807F073FC07B030BD02F17F41194385
S31508003C9006D1002101202B4607B0BDE83040184761
S31508003CA0A2F5805119434FF0000103D0A2F58042D6
S31508003CB01A4301D10320EEE7FF20ECE75C1D002044
S31508003CC007B500220B4600920A46014603480068DB
S31508003CD007F030FC03B05DF804FB00BF5C1D002054
S31508003CE0F0B50446154D164A6B68807A5B7A85B03E
S31508003CF0D75C0E46FFF77CFF237A022B0DD10023F3
S31508003D0039461A46286807F0F9FA98B10021FF20C3
S31508003D10334605B0BDE8F0401847002221680092F6
S31508003D20039202918DF80C303946286802AB07F0E9
S31508003D30E7FAEAE72E6105B0F0BD00BF5C1D00207A
S31508003D40F8D000082DE9FF4104461B4D1B4A6B6855
S31508003D50807A5B7A0E46D75CFFF74AFF237A4FF0E4
S31508003D600108022B08BF01238DF80430636818BFC9
S31508003D70226803F1640308BF00220293637A0024D1
S31508003D80394600928DF80C306A46234628688DF825
S31508003D900D808DF80E4007F0B5FA074642462146D3
S31508003DA0286807F0E3FB2FB12146FF20B04704B08F
S31508003DB0BDE8F0812E61FAE75C1D0020F8D0000806
S31508003DC00022034B03211A611868012207F091BAF1
S31508003DD05C1D002000487047641D0020014B188CAC
S31508003DE0704700BF5C1D002010B5094C86B06A46B6
S31508003DF06169206807F0B6FB638B69460333206860
S31508003E00ADF8043007F0B0FB009806B010BD00BF4F
S31508003E105C1D00201FB50022CDF80A20ADF80E2043
S31508003E204268084B0092026858600192427A6946D5
S31508003E301868ADF8082007F0DCFB00F00DF805B0AF
S31508003E405DF804FB5C1D0020024A138C43F4807362
S31508003E50138470475C1D002038B50D4C238CDB0598
S31508003E600CD563680B4D1B7A2A789A4206D0012B2B
S31508003E7005D0022B07D063681B7A2B7038BD2068E3
S31508003E8000F056FEF7E7206800F058FEF3E700BF9B
S31508003E905C1D00206E26002010B50024064B1C6011
S31508003EA0064B1C7007F007F9B0FA80F3044A5B0961
S31508003EB01370044B1C7010BD801D00207126002055
S31508003EC0702600206F26002010B5074B1C782CB9E9
S31508003ED0064B1B7833B107F0F6F8044600F066F88F
S31508003EE0204610BD8124F9E771260020702600209F
S31508003EF038B50A460F4903460978C1B10E4908780C
S31508003F0050B90E4C24783CB90D4C20681518B5F5F7
S31508003F10806F02D98220087038BD1946094B1844AB
S31508003F2007F00EFE2560BDE8384000F00DB8812088
S31508003F30F2E700BF70260020712600206F260020B9
S31508003F40801D0020841D002038B5134B134D1A78A8
S31508003F502968022A0ED0032901D8002038BD104A44
S31508003F601068104A904203D084200F4B1870F5E76A
S31508003F7002221A700A48FCF7F3FA04462A68074927
S31508003F80074807F075F8002CE7D041F207039C4272
S31508003F90E3D08520E9E700BF70260020801D0020B9
S31508003FA0841D0020EB17A603712600200022014B72
S31508003FB01A707047702600201FB5124C637A204687
S31508003FC00133DBB2282B28BF25236372FFF722FFB4
S31508003FD00023CDE90233E368627C01930123617D06
S31508003FE0D207094801F102018DF80C3048BF8DF857
S31508003FF00E30FFF765FE054901A8FFF771FE04B00C
S3150800400010BD00BF8421002098210020114000081F
S31508004010022810B51BD002D8012805D0FEE70328D0
S3150800402043D0FF2841D0F9E7214C637C990707D58F
S31508004030FFF7C6FEFFF7C0FF637C6FF341036374A7
S31508004040637CDA0730D4BDE81040FFF7B5BF4B787C
S31508004050DB072AD54C68217801F00F03032B11D012
S31508004060052B22D1C90904F1080007F02BF9D8B1AC
S31508004070FFF7A6FEFFF7B8FE01462046BDE810404A
S3150800408000F0A4BAC90904F1080007F01BF958B1F1
S31508004090074C94F83D1004F13C000231FFF710FE7E
S315080040A0637C43F00203637410BDFFF789FECAE719
S315080040B08421002010B50A4C5A220021204607F018
S315080040C037FD42F21072C4F80220064A44F80A2C58
S315080040D0054A44F8062C42F2015224F8022C10BD77
S315080040E08E210020D6BE898E5555550038B5044612
S315080040F0FFF766FE002C3FD0204C257C627CB5FA83
S3150800410085F35B0963F300026274FFF763FE837944
S3150800411005F00F05C3F3000345EA8315237D23F055
S315080041204F031D43637D25750BB906236375036825
S31508004130C4F816308288124B9A80FFF74BFE8379B3
S3150800414094F83C20C3F300039B0143F0040322F0D8
S315080041504F02134384F83C3094F83D3013B90623D4
S3150800416084F83D300368C4F83E308288054B9A804F
S31508004170BDE83840FFF720BF38BD00BF84210020C6
S315080041809A210020C221002020290A4608B509D80C
S31508004190054B06315975014603F11C0007F0D0FCA2
S315080041A0002008BD1220FCE78421002020290A46A9
S315080041B008B50AD8064B063183F83D10014603F1C7
S315080041C0440007F0BDFC002008BD1220FCE700BF34
S315080041D0842100200A20D0B50B4CE38C584305F007
S315080041E00FFF0646A08C0F4605F00AFF0022074B74
S315080041F005F070FF02460B463046394606F094F83D
S3150800420006F07AF92083D0BDE82200200000F43FAA
S315080042101FB5134CA37E5A061FD423F0070343F099
S3150800422001032089A376FFF7DDFBA37A04F10C00CE
S31508004230234493F82A306375FFF7ECFDD4E900327E
S31508004240A3EB520103EB520302934FF4803301911F
S3150800425001A804490393FFF775FD04B010BD00BF1C
S31508004260E8220020A94300080022134630B58BB087
S31508004270D910415C03F007042141CC0742BF02F183
S315080042802801694401F8283C03F1010348BF0132BB
S31508004290252BEDD100230C4CD910415C03F0070502
S315080042A02941C9075FBFB3FBF2F102FB113128317F
S315080042B069444CBFD9B211F8281C0133252B04F8E0
S315080042C0011FE9D10BB030BD1123002010B540F213
S315080042D0E244074A6043136800F5807004FB013323
S315080042E003EB5003136053680344536010BD00BFCB
S315080042F0E8220020024B9884D984FFF76BBF00BFE1
S31508004300E8220020014B1875704700BFE8220020FC
S31508004310C908814228BF0146014B1985704700BF6D
S31508004320E8220020044B5A6D22B95865A3F85810A4
S315080043300120704700207047E8220020034A937E38
S3150800434043F04003937606F08DBE00BFE8220020B6
S3150800435010B5144CA37E5B0623D4FFF731FD40F25B
S31508004360E241A28C236801FB023394F84F102360C4
S31508004370A37A0B442521B3FBF1F001FB10330A2184
S31508004380A372238901332381636801FB02336360C7
S31508004390238B5A1E228323B9BDE810400820FFF755
S315080043A0CDBF10BDE82200200228F7B50E460BD077
S315080043B003D8012800F0F180FEE7032800F0F38017
S315080043C0FF2800F0F080F7E74D784F6815F00105F3
S315080043D0794C59D10025A37E784F13F0200F12D0BF
S315080043E0616D6FF34513A376002900F0BB803B7817
S315080043F094F8582043F00303B81C3B707A7007F012
S315080044009FFB00236365FFF757FAA37E797860F36D
S315080044104103C3F3C002A376C3F300139B0043EA28
S31508004420C2033A7843EA001322F01C0203F01C0385
S3150800443002311343C9B261483B70FFF741FCA37EC2
S315080044407668D90709D56FF30003A376002363605E
S31508004450FFF7CAFC2060FFF7BDFE002D00F0AA801A
S31508004460337803F00303022B06D0032B00F08E806B
S31508004470012B40F09F80002528467278B11C03B0B6
S31508004480BDE8F040FFF766BA3B78A27EC3F3001397
S3150800449063F382023B78A276D1B2C3F3C000C2F3BB
S315080044A00012904210D0A17EC3F38003C1F3C0026C
S315080044B093428FD082F00102D20042F0200221F00E
S315080044C028010A43A27685E703F00302022A1DD0D3
S315080044D0032A03D0012AE6D1002018E0C1F3C0025E
S315080044E0C3F38003934208D082F00102D20042F05F
S315080044F0200221F028010A43A276A37EC3F3001204
S3150800450082F0010262F30413A37664E728467978F9
S3150800451091B9A17EC3F38003C1F3C002934201D1CE
S315080045200025EAE782F00102D20042F0200221F0DB
S3150800453028010A43A276F3E7FFF7FEF9A27E397847
S31508004540C2F3C003C1F38001994208D083F0010386
S31508004550DB0043F0200322F028021343A376002849
S31508004560CBD137E794F82820B91C0DF10700FFF7DF
S3150800457097F948B19DF807300133DBB23A7878707D
S3150800458063F301023A703EE70123F7E77178B01C3E
S3150800459003B0BDE8F040FFF751BA074B9B7E9A0778
S315080045A008D45B0706D4FFF7D3FE03B0BDE8F04096
S315080045B0FFF72EBE03B0F0BDE8220020E821002058
S315080045C0014B1889704700BFE8220020F8B5224D34
S315080045D004460E465C220021284607F0A9FA202345
S315080045E0AB7605232B83627E237E012743EA0223CB
S315080045F0AB84627F237F04F11E0043EA0223EB8427
S3150800460094F82330C3F3040385F84F3094F8233025
S31508004610C3F3421385F850301B232B85FFF724FE7E
S31508004620D4F80E30E27CEB60A37C2E6043EA0223CA
S31508004630227D2F7543EA02432B6195F84F30607D42
S31508004640AB72E18A3944FFF741FEFFF7E1FD2046E8
S3150800465006F006FD3846F8BDE82200202DE9F843A5
S31508004660DFF860900646D9F8008008461746B8F184
S31508004670000F03D00E242046BDE8F88306B333683E
S3150800468001331DD1E1B100F06FF805460028F1D0DD
S31508004690C9F8000000F08EF8284606F046FE0446E3
S315080046A040B14046C9F8008000F084F8284606F074
S315080046B037FEE0E73560002FDDD02846B847DAE751
S315080046C02124D8E744230020024B1868003818BF75
S315080046D00120704744230020431E033306D8044BA9
S315080046E0984228BF1846642838BF6420704700BF20
S315080046F040420F0038B5194B05461B680C4603B1F6
S31508004700984744B1236833B11B68013303D0E36883
S315080047100BB1A3684BB907F01BF900204FF4C1721F
S31508004720412100F0EFF9212038BD204602F0A2F918
S3150800473000230B4A85F83C31C5E93743C2E9003303
S3150800474063694BB1074A422110684FF4D272C31A03
S315080047505842584100F0D6F90020E5E768250020C0
S31508004760902600209C250020F8B5044607F03BFB60
S31508004770002607460E4B1B6893B19E68AEB196F8A5
S315080047802420D20711D435460FCC0FC50FCC0FC540
S3150800479023682B6096F8243043F0010386F824300A
S315080047A0384607F01BFB3046F8BD1B68E4E700BF38
S315080047B0B026002010B5044618B9054B054A136003
S315080047C010BD00F03FFAD4F8E830002BF6D1F4E734
S315080047D009B30008AC26002008B502460868FFF7AA
S315080047E07BFF08604868FFF777FF48608868FFF72F
S315080047F073FF8860C868FFF76FFF0B69C860581CAD
S3150800480003D00B48834228BF03460B614B69581CEB
S3150800481003D00748834228BF034688694B61FFF7E0
S315080048205BFFBDE808408861104601F08DB900BFFE
S3150800483040420F00D0F8E0302DE9F04105460C461D
S3150800484013B1C38D8B424CD0D5F8DC30002B4BD03E
S315080048509E68002E48D0D868002845D0013800B296
S3150800486000281ADB002106E0128A591CA24217D238
S3150800487009B2884211DB0B1803EBD3735B1003EB09
S31508004880C30206EB8202B2F80EC003F1FF3EA4454E
S31508004890EAD90FFA8EF08842EDDA2120BDE8F081D8
S315080048A04FF6FF7299B29142F7D09BB203EBC3035E
S315080048B006EB83062846B6F9122095F83011D5F886
S315080048C0F080FEF73FF90746B8F1000F04D0002341
S315080048D0324628461946C047EC85C5F8E06085F893
S315080048E039710020BDE8F0810E20BDE8F08100BFD7
S315080048F02DE9F04782B004460F46164601F0ECFA59
S31508004900002863D14F4D2B68D4F8DCA0D4F8E0809A
S315080049100BB1534576D04FF00009AF6001F006FBA6
S315080049200128074665D1204606F0B7FF002851D171
S315080049302B68DAF80010D8F8002013B118688842F6
S315080049406BD0204606F085FFC5E900A8D4F8F050DC
S315080049508DF80760002D67D00022204611460DF11C
S315080049600703A847204600F0F5FC0546B9F1000FF5
S315080049700FD076B9D4F88C300BBB012F05D025B1F2
S31508004980314B002103205B689847284602B0BDE8F2
S31508004990F087B5FA85F040F207523321400900F056
S315080049A0B1F83146204600F029FF284B05461B681A
S315080049B0414620469847D4F88C30002BDDD000229B
S315080049C04FF40073204600F04DF9D6E700231D4D3D
S315080049D06B6098E794F825309A07A9D5D4F89430EF
S315080049E05B05A5D51A4B0122002120461B6898476E
S315080049F09EE70021012000F06DF901F097FA0128E1
S31508004A00FBD190E76B68002B85D0434583D1AB6813
S31508004A109F4215D04FF001097FE7696811B109680F
S31508004A20914291D059688CE794F82A1094F8393154
S31508004A303246994228BF1946204600F0DDFB91E729
S31508004A400025A2E790260020B8260020AC260020E4
S31508004A506C250020F8B50F46054607F0C4F9394617
S31508004A6006462846FFF7E6FE044620B1304607F01C
S31508004A70B5F92046F8BD01F011FA2246394628460E
S31508004A80FFF736FF04460028F0D1284606F005FF52
S31508004A900028EBD095F8253013F002030DD0D5F891
S31508004AA094305B050DD5B5F82A31BB420BD0B5F865
S31508004AB02C31DB1BB3FA83F35B09044A82F8DC303A
S31508004AC0D4E72346F9E70123F7E700BF003E00B025
S31508004AD0024B1860024B1960FEE700BF482500200C
S31508004AE0B426002038B5044D044C054B28602160D7
S31508004AF01A60FFF7EDFF38BD48250020B4260020D0
S31508004B004C25002010B550B90548064B01600648EB
S31508004B1002601868054B18601868FFF7E3FF10BDB8
S31508004B20B4260020442300204C25002048250020D8
S31508004B30014906F02FBD00BF5D610008014906F076
S31508004B4029BD00BF31610008D0F8E43013B11A68F6
S31508004B50032A10D8094BDB6BC3F3C20213F0380FD4
S31508004B6003F0070018BF504313F4E07FC3F3821223
S31508004B7003D050437047986A400E7047008001B8CA
S31508004B80431C07D06FF0FF02034B10405A62A3F58F
S31508004B9080535862704700BF00E000B810B5042380
S31508004BA04FF03A4101240A4AD1F81801C2F81831DF
S31508004BB0C2F814314C634FF400511163410742BFE8
S31508004BC0C2F81431A2F58052C2F8183110BD00BFE0
S31508004BD0002000BAF8B504460F46164607F003F952
S31508004BE00546A047044620B1284607F0F7F82046B0
S31508004BF0F8BD04F007FA04220549D1F8F03E23EA85
S31508004C0007033343C1F8F03E024B5A64ECE700BF92
S31508004C10003000B0002002B800F01803182B0AD0A4
S31508004C2003070AD440F2011310F0100018BF184603
S31508004C30034BD86770470020FAE70120F8E700BF62
S31508004C40003F00B038B10368044A002B08BF13467A
S31508004C50034A13607047014BFAE700BF21B6000804
S31508004C60C826002010B4D0E9544122400B4052EA2D
S31508004C70030104D003495DF8044B096808475DF849
S31508004C80044B7047C82600200F2938B505460C4640
S31508004C900ED801F04BF901280CD1074A2846936E25
S31508004CA023F00F032343936606F0FAFD002038BD70
S31508004CB02120FCE70220FAE7003F00B0014BD86E3E
S31508004CC0704700BF003F00B0014B0020D96670470F
S31508004CD0003F00B003282DE9F347884664D8344BD3
S31508004CE013F80090334B1E5C334B13F800A007F003
S31508004CF07AF8074603F09AFF054640B100230022DA
S31508004D00CDE9003301200023002103F0BDFD03F0A7
S31508004D1095FF48B100230022CDE900330020002387
S31508004D204FF4004103F0B0FD002E3BD0234BDC6C62
S31508004D3004F00804224B3146DC64484604F0C0F906
S31508004D4052463146484604F049FA1E4BDC64DDB14A
S31508004D501D4B1868D0F89410F83002F0F1FF1B4983
S31508004D600868FFF70DFF4FF0FF330B60184B1A6802
S31508004D70511C06D06FF07E401649C863A1F58051D4
S31508004D80CA634FF0FF321A60B8F1000F04D0124B15
S31508004D90002103205B689847384602B0BDE8F04713
S31508004DA007F01CB83446C5E702B0BDE8F08700BF77
S31508004DB044D1000840D100083CD10008004000B8A2
S31508004DC0006000B8005000B844230020C426002024
S31508004DD0C026002000E000B8B82600200F4A536C11
S31508004DE013F0A00F15D1906C10F0040013D10C4BE2
S31508004DF0D3F8F03E23F07F4323F0FF035BB1D3687B
S31508004E00C3F30362092A07D0B2F10C0018BF0120C8
S31508004E107047002070470120704700BF000002B8A5
S31508004E20003000B0074A084B30B10221C2F86412BC
S31508004E300422C3F8642270470421C2F864120222CD
S31508004E40F7E700BF006001B8005001B870B50D461D
S31508004E50064620B91C4B1B68D3B10E2017E001F09B
S31508004E6065F801282DD1194B93F90040D6F8E4309E
S31508004E70C4F11C040BB193F92630E41A641BC4F17F
S31508004E802B03002BB8BF5B42232B0CDD212070BD02
S31508004E9001F10F03002BB8BF5B42232BF6DC0B4B4B
S31508004EA019700020F3E786F8285006F09CFF084A98
S31508004EB0136A23F4FF2343EAC423136206F08EFF22
S31508004EC0EFE70220E3E700BF442300207226002014
S31508004ED000C000B8094B08461A6D91020BD4D3F8E6
S31508004EE04021D20708D4D3F8803013F4706F14BF6A
S31508004EF00120002070470120704700BF004001B81C
S31508004F00F8B50D46D0F8943002EA010423EA010305
S31508004F102343C0F894304D4A01F00B0323EA0401F9
S31508004F20D1642340A2F580526F070646D36410D594
S31508004F300121FFF7CFFF60B104F064F84FF4007366
S31508004F4014F0040F14BF424A424A13650422424B26
S31508004F505A64E90606D514F0100F14BF00221B2266
S31508004F603E4B5A652A0618D5230611D54FF400126A
S31508004F70374BDA6406F037FF0E210746032002F0A6
S31508004F8067FE40F20122354B3846DA6206F026FF04
S31508004F90214606F1F80002F0D3FEEF0503D5E00539
S31508004FA03DD502F043FEA90503D5A2053AD502F080
S31508004FB049FE15F48C6F1DD014F4806237D096F82C
S31508004FC025309B070CD5F28DB6F82A3193422CD0A2
S31508004FD0B6F82C319F1A7B427B41214A82F8DC3095
S31508004FE0D6F8E410304606F01CFB80221D4B986765
S31508004FF01D4B1A612B0510D504F004F81B4A14F44E
S31508005000006FD2F8F03E14BF43F0006323F000634C
S31508005010C2F8F03E0422104B5A640020F8BD02F094
S31508005020FFFDC0E702F008FEC3E70123D5E76805E0
S31508005030D6D596F825309907D2D5094B114683F867
S31508005040DC200B4B30461B689847C9E7006000B860
S31508005050005001B8006001B8002002B8004000B84E
S31508005060003E00B0003F00B0000002B8003000B0BB
S315080050706C25002090F827305A1F012A01D9082BE1
S3150800508005D14B7C2BB1012B05D0022B05D006F0A0
S315080050901EBB03487047034870470348704700BF64
S315080050A020A1070048E8010040420F000A78022ABA
S315080050B011D0101F4242424152004B781201022B76
S315080050C00BD0191F4B424B415B000549054842EA84
S315080050D08312FFF77FBD0122EFE70123F5E700BF43
S315080050E0F0FFFF00755F00080B78022B10D0181F21
S315080050F0434243415B004A78022A0BD0111F4A42B9
S315080051004A4152000F21044843EA8202FFF762BD72
S315080051100123F0E70122F5E7A15F00082DE9F8432E
S315080051200E780446042E0D4690F830810BD10027E0
S315080051305FFA87F9484601F03FFD08B14E4602E09E
S315080051400137042FF4D1304601F036FD002849D046
S3150800515094F83031B34209D1AA88D4F8A4309A42D7
S3150800516004D16A88B4F832319A4238D084F830616A
S31508005170AB883046A4F834316B88A4F83231AB8852
S3150800518004F59875C4F8A430FF2384F82B3006F08C
S31508005190E8FB84F82A00284601F09EFC18BB28463E
S315080051A001F000FDF8B9D4F8E03053B194F83011A5
S315080051B0414506D02046B3F91220FDF7C3FC84F812
S315080051C03901204601F076FD0949A4F83401012386
S315080051D0084AD1F8FC1004F1F80003F063F900203E
S315080051E0BDE8F88321200C2384F83031F8E700BFA6
S315080051F0004F00B0A43F00B070B5054690F83001E6
S315080052000C460C281FD0FF2901D1212070BD1AB1E8
S315080052104FF0FF320D4B1A6006F0A3FB064695F8D1
S31508005220300101F039FD844228BF0446E4B2B44295
S3150800523038BF3446E0B285F82B0001F059FEFF2846
S31508005240E3D00020E2E70220E0E700BFD0260020F6
S3150800525010B590F8303104460C2B44D0D0F8E03025
S3150800526080F82A10DBB3D0F8F020D2B990F839319B
S315080052708B421CD300222046FFF7BEFF48BB1B4BC0
S315080052801B7813F0FD0F23D1204601F013FD1849B2
S315080052900123184AD1F8FC1004F1F80003F002F9CA
S315080052A016E0B0F94220B3F912309A42E2DD002244
S315080052B0204694F83911FFF79FFF50B9C4F8E0006B
S315080052C0204606F0A0F84FF6FF739842014601D132
S315080052D0002010BD2046BDE81040FFF7BBBBFF23EA
S315080052E080F82B30F4E70220F3E700BFF62600200B
S315080052F0004F00B0A43F00B0F0B51D46144B04465D
S315080053001B780F46164685B05BB1D0F8E030E3B19E
S3150800531002AAB3F912300092002205F0A0FC05B0EB
S31508005320F0BD02A906F0EDF89DF808103A462046A9
S31508005330FDF708FC014626B92A462046FFF75CFF1A
S31508005340EDE72046FFF784FFE9E71846E7E700BFE1
S315080053509BC00008F0B504468FB000F0B5FFD4F83E
S315080053609C300546012B00D010B128460FB0F0BD81
S315080053706C49204606F044FBD4F8E0600146E58D0A
S31508005380C4F8E4003EB133682BB15B681BB11A68F8
S31508005390032A00F2A48006F026FD01462046FFF700
S315080053A0D3FB0746084606F019FDD4F8E410B3897E
S315080053B08DF80E70EB1A9BB2D6E9012000FB03228A
S315080053C05948ADF80C3003680292994207D0204636
S315080053D006F027F980225549554B88671A61554DBD
S315080053E0534E00F0A3FD0128FBD12B6CDB07F8D444
S315080053F0736CDF01F5D4D4F8E41020460D919DF8BE
S315080054000E20029908AB02F057FD002847D100F09C
S315080054108DFD0128FBD1464A4649536CD801FCD478
S315080054200B6CDB07F9D408A901A802F0CBFE0546E8
S31508005430002834D1E28D404B5A6494F8243060F346
S31508005440410384F8243000F0C9FFD4F8E0305969E4
S31508005450431E0E68DBB2FD2B049624D84B68012840
S31508005460059330D10126DF1C06D90133334B5B681F
S3150800547046D0DA1C41D80593024604A9204600F016
S315080054806FFF002E7FF471AFD4F85431990529D4F3
S3150800549094F8243043F0020384F8243065E70225A3
S315080054A028460FB0F0BDF71C13D9244B01361B68EC
S315080054B018BF0126DA1C1BD804934B68FF280593EE
S315080054C0D1D00020D8E70246204604A900F048FFBC
S315080054D04BE74B68FF280593C4D02A46F4E79F6A32
S315080054E07F0E64E720464FF4803106F00EF83CE75D
S315080054F0FF284B6813D00593C3E7FF28C1D1E0E71F
